:020000040800F2
:1000000000040020210200082302000891130008C8
:10001000230200082302000823020008230200082C
:10002000230200082302000823020008B933000855
:10003000230200082302000823020008230200080C
:1000400023020008230200082302000823020008FC
:100050002302000823020008A1130008E51300088A
:10006000291400086D140008B1140008BD3B0008F5
:10007000ED3B0008213C0008553C0008893C000885
:10008000B93C0008ED3C00082302000823020008E8
:10009000230200082302000823020008F5140008C8
:1000A000230200082302000823020008230200089C
:1000B00023020008B1080008A1100008230200086C
:1000C000230200082302000823020008051B000881
:1000D000391B00082302000823020008230200083D
:1000E0003915000823020008230200082302000833
:1000F000230200082302000823020008213D000813
:100100002302000823020008452800086D1B000890
:10011000230200082302000823020008230200082B
:10012000553D0008853D0008B93D0008ED3D00083B
:10013000213E0008230200082302000823020008D1
:1001400023020008230200082302000805390008E2
:10015000513E0008853E0008B93E00082302000811
:1001600023020008230200082302000823020008DB
:1001700023020008230200082302000823020008CB
:1001800023020008230200082302000823020008BB
:1001900023020008230200082302000823020008AB
:1001A000230200082302000823020008230200089B
:1001B000230200082302000823020008230200088B
:1001C0000502000861090008F90F0008791100080C
:0801D00091260008E10100087E
:1001E00010B5054C237833B9044B13B10448AFF371
:1001F00000800123237010BD58060120000000007C
:100200001C44000808B5034B1BB103490348AFF376
:10021000008008BD000000005C0601201C440008AE
:100220001CE000F000F8FEE72DE9F04FC1F80CD01B
:10023000C3689D46BDE8F08F02F026FE002383F3DD
:1002400011882846A047002003F00AF802F00CFEAF
:1002500002F00CFF02F018FE00DFFEE772B627483E
:1002600080F30888264880F3098826484EF608510E
:10027000CEF200010860022080F31488BFF36F8F74
:1002800003F0CAF801F0A4FB4FF055301E491B4A99
:1002900091423CBF41F8040BFAE71C49184A9142CD
:1002A0003CBF41F8040BFAE719491A4A1A4B9A4223
:1002B0003EBF51F8040B42F8040BF8E70020174941
:1002C000174A91423CBF41F8040BFAE703F0A8F843
:1002D00003F0A3F8134C144DAC4203DA54F8041B9A
:1002E0008847F9E702F01EF8104C114DAC4203DAD2
:1002F00054F8041B8847F9E703F090B80004002085
:100300000008002000000008000000200004002079
:100310001C4400080008002058060120580601204F
:10032000F41B0120C0010008D4010008D40100081A
:10033000D801000853B94AB9002908BF00281CBFDA
:100340004FF0FF314FF0FF3000F07AB9ADF1080CFB
:100350006DE904CE00F006F8DDF804E0DDE90223E3
:1003600004B070472DE9F0478C460E460446089DC0
:10037000002B50D18A4217466CD9B2FA82FEBEF1E8
:10038000000F0BD0CEF1200C01FA0EF620FA0CFC77
:1003900002FA0EF74CEA060C00FA0EF43A0CBCFB1B
:1003A000F2F9BBB202FB19CC09FB03FA4FEA14487D
:1003B00048EA0C46B2450AD9F61909F1FF3180F036
:1003C0002581B24540F22281A9F102093E44A6EB03
:1003D0000A06B6FBF2F002FB106600FB03F3A4B2C0
:1003E00044EA0644A34209D9E41900F1FF3280F03F
:1003F0000B81A34240F2088102383C440021E41AF8
:1004000040EA0940002D62D0002324FA0EF42C604B
:100410006B60BDE8F0878B4207D9002D55D00021D5
:1004200085E841000846BDE8F087B3FA83F100296A
:1004300040F08F80B34202D3824200F2FC80841AE3
:1004400066EB03060120B446002D40D085E810106D
:10045000BDE8F08712B90127B7FBF2F7B7FA87FEBC
:10046000BEF1000F35D10121F61B4FEA174C1FFAE0
:1004700087F8B6FBFCF20CFB126608FB02F0230CBB
:1004800043EA0646B04207D9F61902F1FF3302D219
:10049000B04200F2D2801A46361AB6FBFCF00CFBD2
:1004A000106608FB00F8A3B243EA0644A04507D94A
:1004B000E41900F1FF3302D2A04500F2B9801846DA
:1004C000A4EB080440EA02409CE729462846BDE820
:1004D000F08707FA0EF7CEF1200326FA03F24FEA6F
:1004E000174CB2FBFCF11FFA87F80CFB112206FA3D
:1004F0000EF620FA03F301FB08F933431E0C46EA1B
:100500000246B14500FA0EF409D9F61901F1FF329D
:1005100080F08C80B14540F2898002393E44A6EBE0
:100520000906B6FBFCF00CFB106200FB08F99EB25A
:1005300046EA0246B14507D9F61900F1FF3371D2F8
:10054000B1456FD902383E44A6EB090640EA0141A5
:100550008FE7C1F1200722FA07F88B4048EA03032E
:1005600026FA07F44FEA134EB4FBFEF91FFA83FC98
:100570000EFB19448E4020FA07F809FB0CFA48EAF2
:1005800006084FEA184646EA0444A24502FA01F278
:1005900000FA01F608D9E41809F1FF3044D2A24567
:1005A00042D9A9F102091C44A4EB0A04B4FBFEF0F1
:1005B0000EFB104400FB0CFC1FFA88F848EA0444C8
:1005C000A44507D9E41800F1FF3E29D2A44527D954
:1005D00002381C4440EA0940A0FB0289A4EB0C0C41
:1005E000CC45C246CE4615D312D055B1B6EB0A0360
:1005F0006CEB0E0606FA07F7CB401F43CE402F6088
:100600006E600021BDE8F0871046F7E68946DEE619
:100610004645EAD2B8EB020A69EB030E0138E4E77B
:100620007046D7E718468FE78146BDE7114676E763
:1006300002383C4444E7084606E7023A3E442BE7CA
:10064000704700BF664B73B51A6B664C42F00202EE
:100650001A632268002522F0405222602268624E0E
:1006600042F0805222606268294622F48042626031
:10067000626830466260E26822F04052E260E268FE
:10068000E260A26822F04052A260A26842F00052EA
:10069000A2601A6B42F002021A63226822F04072D2
:1006A0002260226842F080722260626822F48052E6
:1006B000626062686260E26822F04072E260E26852
:1006C000E260A26822F04072A260A26842F040722A
:1006D000A2604FF48052A2611A6B42F002021A63C8
:1006E000226822F040622260226842F000622260AA
:1006F000626822F400526260E26822F04062E260C6
:10070000E268E260A26822F04062A260A26842F061
:100710004062A260626A22F470026262626A42F41B
:10072000A00262621A6B42F002021A6323682A4630
:1007300023F040432360236843F000432360636851
:1007400023F400436360E36823F04043E360E3681D
:10075000E360A36823F04043A360A36843F04043F1
:10076000A360636A23F070436362636A43F0A0434B
:1007700063621E4B8DE828002B4601F045F92B469D
:100780002A460921042003F037FC194B194A186046
:1007900003689A604FF488621A6033685A6842F0BE
:1007A00002025A601A6842F040021A604FF0804319
:1007B000A361114C204600F00DFD4FF40772236831
:1007C0000721DA62DA681D2042F00102DA6002F0E5
:1007D00027FB2268136843F00103136002B070BD69
:1007E00000380240000402407C16012080F0FA022A
:1007F000781601200C38004080160120F0B5284CF6
:10080000284B2568284C0022D91D9D4218BF0C4654
:10081000264E3270254600F10801A4F10807BD42BA
:1008200034D011F8083C11F807EC93428CBF012337
:100830000023964511F806EC88BF43F00203964565
:1008400011F805EC88BF43F00403964511F804EC59
:1008500088BF43F00803964511F803EC88BF43F0C6
:100860001003964511F802EC88BF43F0200396452B
:1008700011F801EC88BF43F04003964588BF43F070
:100880008003DBB22B700831013DC8E70132B2F5BD
:10089000807F04F10804BDD101233370F0BD00BF97
:1008A00000080020750601207C0E0120740601203E
:1008B00020230021214AF0B59361214B1961214B7E
:1008C00019680B68186820F01F001860186810F08D
:1008D0000100FBD14D7A4C683D21A94021600821DF
:1008E00059604FF4805191614FF0805191611649E8
:1008F0000C6808340C60154C2568013525602568A6
:10090000FF2D10D9124E20603478124D4CB12C6856
:10091000DFF848E0104F307074450CBF3C46744619
:100920002C60286808600968D960196841F00101E5
:1009300019604FF400139361F0BD00BF0004024042
:1009400000040040781601200408002084160120CD
:100950007406012000080020750E01207506012094
:10096000034A044B1A60044B02F550521A60704758
:1009700000040040801601207C160120144B984290
:1009800005D1144A136B43F0010313637047124BF4
:10099000984204D10F4A136B43F00203F5E70F4B63
:1009A000984204D10B4A136B43F00403EDE70C4B60
:1009B000984204D1074A136B43F00803E5E7094B5B
:1009C0009842E3D1034A136B43F01003DDE700BF05
:1009D00000000240003802400004024000080240CB
:1009E000000C02400010024070B504461546FFF7A7
:1009F000C5FF0323022648008340DB4306FA00F0CC
:100A0000012622688E401A4022602268072942EAA5
:100A1000000222606268C8BF083922EA06026260EA
:100A2000E2684FEA810102EA0302E260E268E26002
:100A3000A26803EA0203A360A3684FF00F0240EA32
:100A40000300CCBF01230023A06004EB8304236ACE
:100A50008A4023EA02032362226A05FA01F1114364
:100A6000216270BD0368197303689A68D207FCD5C8
:100A7000187B70470123428A81689340034A0869C2
:100A8000184002D0013AFAD101207047B882010023
:100A90000123C18AC2688B4093617047C38AC168D1
:100AA00003F11002012393408B617047002101483C
:100AB00002F0DFBBAC1601202DE9F0410546884667
:100AC0001746FFF7EBFF2846FFF7D4FF044630B187
:100AD0002846FFF7DDFF01242046BDE8F0812E1DEA
:100AE00048F080013046FFF7BDFF21463046FFF752
:100AF000B9FF38702846FFF7CBFFEDE72DE9F0414D
:100B0000044688461746FFF7C9FF2046FFF7B2FFA5
:100B1000054630B12046FFF7BBFF01252846BDE85A
:100B2000F081261D41463046FFF79CFF394630468E
:100B3000FFF798FF2046FFF7ABFFEFE710B504463D
:100B40000E220B21FFF7DAFF00220C212046FFF7CF
:100B5000D5FF20220D212046FFF7D0FF25220E21B0
:100B60002046FFF7CBFFED220F212046FFF7C6FFFF
:100B70000E2210212046FFF7C1FF2F22112120460F
:100B8000FFF7BCFF732212212046FFF7B7FFA32215
:100B900013212046FFF7B2FFFF2214212046FFF762
:100BA000ADFF00220A212046FFF7A8FF00221521F1
:100BB0002046FFF7A3FFB62221212046FFF79EFF24
:100BC000102222212046FFF799FF082218212046F3
:100BD000FFF794FF1D2219212046FFF78FFF1C22EB
:100BE0001A212046FFF78AFFC7221B212046FFF764
:100BF00085FF00221C212046FFF780FFB0221D2127
:100C00002046FFF77BFFEA2223212046FFF776FFED
:100C10002A2224212046FFF771FF002225212046A9
:100C2000FFF76CFF1F2226212046FFF767FF88226F
:100C30002C212046FFF762FF31222D212046FFF7AD
:100C40005DFF09222E212046FFF758FF07220321CE
:100C50002046FFF753FF072200212046FFF74EFFF3
:100C6000062202212046FFF749FF0C2207212046D9
:100C7000FFF744FF442208212046FFF73FFF5022A0
:100C80003E212046FFF73AFF072216212046FFF7B4
:100C900035FF2046BDE8104000221721FFF72EBF88
:100CA00070B504460E46FFF7F9FE2046FFF7E2FE58
:100CB000054628B12046FFF7EBFE0125284670BD0A
:100CC0003146201DFFF7CEFE84F820002046FFF7B6
:100CD000DFFE94F8203003F0700384F82030EDE755
:100CE0002DE9F0434368924A85B09342044600F0F0
:100CF000B680A2F5784293420CBF4FF005084FF042
:100D000006080325E168E78A0846FFF737FE7B00FF
:100D1000DBB205FA03F2D2430126086806FA07F7A8
:100D200010400860D1F800E006FA03F040EA0E0037
:100D30000860486820EA07074F600227486807FAFA
:100D400003F34860C8681040C860C868C860886815
:100D500002408A608A68A06813438B604246218AF9
:100D6000FFF742FE4246618AA068FFF73DFE424619
:100D7000A18AA068FFF738FEA169237F0846B34027
:100D80005FFA83F894F81E90FFF7F8FD05FA08F370
:100D9000DB434FF00F0E0A68A08B1A400A60CA6846
:100DA0001340CB60CA6809FA08F31343CB60614B68
:100DB0005A6C42F480425A645A6E22F480425A6657
:100DC0005B6E00F47F7303F1804303F59C3300EA0C
:100DD00005029968BA400EFA02FE21EA0E019960F6
:100DE000DFF88CE1A16971453CD1996896400E43CA
:100DF0009E600126504B06FA00F2196811431960F3
:100E0000D143586808405860986801409960D96893
:100E100020461143D9605A61FFF73AFE0023474A42
:100E200019468DE80C00201D1A4600F0EDFD6268A1
:100E300030211368204643F040031360FFF730FF72
:100E4000002841D062683E48136823F040031360D5
:100E500000F092FF3546284605B0BDE8F0834FF01C
:100E600005084EE7374EB14205D1996807FA02F2FC
:100E70000A439A60BDE7344EB14204D19968954067
:100E80000D439D60B5E7314DA94205D104219D6810
:100E900001FA02F22A43ECE72D4DA94202D19D68E6
:100EA0000521F5E72B4DA94202D19D680621EFE708
:100EB000294DA94202D19D680721E9E7274DA942A2
:100EC00097D19D680821E3E7072206212046FFF716
:100ED00015FE08B12248BBE704AA02F8010D06215D
:100EE0002046FFF7E9FD054638B99DF80F100729A0
:100EF00005D01C4800F040FFACE71B48A8E73A21AA
:100F00002046FFF7CDFE2046FFF718FEA08B0928EC
:100F100009DC042809DC0630072101F081FF1348B1
:100F200000F02AFF97E72820F6E71720F4E700BF34
:100F30000030014000380240003C0140A02E630018
:100F40005040000800080240000C0240001002401F
:100F50000014024000180240001C02400020024021
:100F60005D400008684000087D4000088840000897
:100F70000004024038B504460D4694F8203023B1F1
:100F800036212046FFF78CFEF7E72A462046BDE8CB
:100F900038400A21FFF7B2BD0021243002F069B9C0
:100FA00010B5044600F110038362C36209213C308E
:100FB00002F07CF804F13000002102F077F80D48CF
:100FC000FFF78EFE044698B906220A481146FFF73D
:100FD00095FD07210748FFF7CDFF3E215022054828
:100FE000FFF78CFD39210348FFF75AFE204610BD5C
:100FF0000124FBE7881601200521114B114A1982B3
:101000000621598207211A600F4A99825A6002F517
:1010100050429A60DA6004219A610022D9829A8350
:101020009A770A480A4983F820205A62094A0860D8
:10103000134600200021E3E904019362D362704764
:10104000881601209C40000800300140AD0A0008CD
:1010500018170120B016012010B50D4C204600F0E5
:10106000B9F86422236842F21071DA62204600F077
:1010700057FB22680F21D3681E2043F00103D36081
:1010800001F0CEFE2268136843F00103136010BD27
:1010900000170120014B1860704700BFFC160120AB
:1010A0000022F8B52A4B2B4F1A613D6815B1013D5E
:1010B0003D60F8BD284C20682646002846D00378BD
:1010C000232B27D004D8182B07D0222B16D0F8BDFD
:1010D000362B0AD0F12B35D0F8BD3F210130FFF778
:1010E0008DFB236840332360F8BD41781B4800F036
:1010F0005FFE23685A7802333A60F4E74178184B70
:101100001848196000F054FE2368174A0233236020
:101110001360F8BD124C2368FF2B02D00BB1013BCA
:1011200023602168114800F043FE23683BB933680F
:101130000133012233600E4B1B685A61F8BD0A4B24
:101140001B68F6E70B4800F033FE2560F8BD00BFD2
:101150000008004004170120FC160120A0400008F0
:1011600008170120A9400008F8160120B140000826
:1011700000170120BC400008014A024B1A6070476A
:101180000008004000170120202383F3118801F09C
:101190008DBE08B501F09CFE002383F3118808BDC5
:1011A00010B50446FFF7F0FF236820461B689847F8
:1011B000BDE81040FFF7EDBF044B9B68C3F38223EB
:1011C000032B034B586888BF40007047003802402B
:1011D0000C1701200368574A93420AD1564B5A6CA8
:1011E00042F001025A645A6E22F001025A665B6EA6
:1011F0007047B3F1804F0BD103F50E331A6C42F0F8
:1012000001021A641A6E22F001021A661B6E704700
:101210004A4A934208D1484B1A6C42F002021A64BF
:101220001A6E22F00202F0E7454A934208D1424B7F
:101230001A6C42F004021A641A6E22F00402E4E707
:10124000404A934208D13C4B1A6C42F008021A649F
:101250001A6E22F00802D8E73B4A934208D1364B77
:101260001A6C42F010021A641A6E22F01002CCE7D7
:10127000364A934208D1304B1A6C42F020021A646D
:101280001A6E22F02002C0E7314A934208D12A4B5D
:101290005A6C42F002025A645A6E22F00202A5E72A
:1012A0002C4A934208D1244B5A6C42F480325A643F
:1012B0005A6E22F4803299E7274A934208D11E4B96
:1012C0005A6C42F400325A645A6E22F400328DE7AE
:1012D000224A934208D1184B5A6C42F480225A6435
:1012E0005A6E22F4802281E71D4A934208D1124BA4
:1012F0001A6C42F040021A641A6E22F0400284E72F
:10130000184A934208D10C4B1A6C42F080021A64BE
:101310001A6E22F0800278E7134A93427FF477AF87
:10132000054B1A6C42F480721A641A6E22F48072B1
:101330006BE700BF0000014000380240000400409D
:1013400000080040000C0040001000400014004065
:1013500000040140004001400044014000480140B9
:1013600000180040001C004000200040074B0138DE
:101370005A6922F080025A6110F8012F22B11968CF
:101380000906FCD55A60F7E7704700BF001001401E
:1013900008B50248FFF7EAFF01BEFEE7C4400008B7
:1013A00008B501F0A7FDFFF7EFFE0A4B1B685BB124
:1013B00098470122084B5A61FFF7EBFE01F0B2FD9E
:1013C000BDE8084002F002B80449054800F000FDFD
:1013D000EFE700BF18170120003C01400D41000855
:1013E000D040000808B501F085FDFFF7CDFE0A4B9F
:1013F0005B685BB198470222084B5A61FFF7C9FE50
:1014000001F090FDBDE8084001F0E0BF0449054847
:1014100000F0DEFCEFE700BF18170120003C0140A0
:1014200016410008D040000808B501F063FDFFF741
:10143000ABFE0A4B9B685BB198470422084B5A618C
:10144000FFF7A7FE01F06EFDBDE8084001F0BEBF4A
:101450000449054800F0BCFCEFE700BF1817012065
:10146000003C01401F410008D040000808B501F0D1
:1014700041FDFFF789FE0A4BDB685BB19847082204
:10148000084B5A61FFF785FE01F04CFDBDE80840AE
:1014900001F09CBF0449054800F09AFCEFE700BF4B
:1014A00018170120003C014028410008D0400008E6
:1014B00008B501F01FFDFFF767FE0A4B1B695BB122
:1014C00098471022084B5A61FFF763FE01F02AFD8E
:1014D000BDE8084001F07ABF0449054800F078FCF7
:1014E000EFE700BF18170120003C01403141000820
:1014F000D040000808B501F0FDFCFFF745FE0A4B9F
:101500001B6863B198474FF47872084B5A61FFF734
:1015100040FE01F007FDBDE8084001F057BF044957
:10152000044800F055FCEEE730170120003C014074
:101530003A410008D040000808B501F0DBFCFFF795
:1015400023FE0A4B1B6863B198474FF47C42084B5B
:101550005A61FFF71EFE01F0E5FCBDE8084001F00E
:1015600035BF0449044800F033FCEEE72C17012096
:10157000003C014043410008D0400008074B1A6876
:1015800042F480321A6042F20F721968890303D460
:10159000013AFAD10220704700207047003802401B
:1015A000074B1A6842F080721A6042F20F72196893
:1015B000890103D4013AFAD1022070470020704714
:1015C00000380240F0B504463D4887B0836803F018
:1015D0000C03042B71D0082B57D03A4B3A4A02AE79
:1015E00002F11007354610685168083203C5BA4247
:1015F0002E46F7D1324806A9826806ADC2F303121F
:101600000A4412F8102C0121D34000228DF800204A
:101610008DF801208DF802208DF8032002228DF82C
:10162000052003228DF8062004228DF804108DF881
:10163000072023608268C2F382222A4412F8182C01
:1016400023FA02F262608268C2F342322A4412F83C
:10165000182CD3401D4AA360136823F001031360C4
:10166000FFF7AAFD42F21073B0FBF3F00138536AA2
:101670009062516100BF00BF00BF00BF536213689A
:1016800043F00103136007B0F0BD4568436842684A
:1016900041680C4811F4800F0D4908BF014605F060
:1016A0003F05B1FBF5F1C3F388134B43C2F301428D
:1016B00001325200B3FBF2F390E7054B8EE700BF17
:1016C000003802400024F40040400008000C0040B4
:1016D000001BB7000F4B99420FD003F5806399426E
:1016E0000BD003F57053994207D003F580639942FC
:1016F00003D003F58063994209D1074B9B68C3F37C
:101700004233032B054B986888BF40007047FFF7B2
:1017100053BD00BF00000140003802400C170120FB
:1017200010B504680A4604482146FFF7D3FFB0FB12
:10173000F2F00138A06210BD0C17012010B5074C63
:10174000A06820F47C4020F0F00040EA433343EAF4
:10175000822343EA0113A36010BD00BF003802409A
:1017600010B50446FFF70AFF90B92046FFF718FFAF
:1017700080B9094B9A6822F003029A609A6842F095
:1017800002029A609A6802F00C02082AFAD110BD8F
:10179000012010BD022010BD003802403A4B10B5A8
:1017A0001868A2F68D2420F00F00B4F5617F40F494
:1017B000C0631CD21E2916DD3C2902DC43F0010364
:1017C00011E05A2904DC40F4C06343F002030AE04C
:1017D000782902DC40F4C0631CE0962940F4C06321
:1017E00031DC43F00403284A0020136010BD6FF47D
:1017F00016641419B4F5967F0FD21829F3DD302939
:1018000002DC40F4C063D9E74829DCDD602940F4FC
:10181000C063E6DC43F00303E5E7A2F63504B4F564
:10182000967F13D21229DEDD2429EADD3629CADDAE
:101830004829CFDD5A2902DC40F4C063D1E76C2986
:1018400040F4C06317DC43F00503CCE7A2F27362F7
:10185000B2F5E17F15D21029C5DD2029D1DD30296F
:10186000B1DD4029B6DD5029E6DD602940F4C063D2
:10187000E9DD702902DC43F00603B4E743F0070317
:10188000B1E7012010BD00BF003C024006480749F7
:10189000836805C8B3FBF1F3B2FBF1F2B0FBF1F1E1
:1018A000034800F069BA00BF0C17012040420F0046
:1018B000DE400008404A38B513680F2943F48073AE
:1018C00004460D4613606ADDFFF758FE002872D10A
:1018D0003A4A302D136823F08073136045D00DD839
:1018E000102D1FD0182D30D02046FFF759FE0028AC
:1018F00061D12046BDE83840FFF732BF482D44D0C3
:10190000782DF1D10423052200212046FFF716FF90
:101910002A4B1A68D2014ED4294A78215A6040F6DF
:10192000E4420EE0254A136813F0807343D1254941
:10193000204651601A460921FFF700FF40F6E442B5
:1019400010212046FFF72AFFCEE71C4A136813F048
:10195000807330D11C49204651601A460821FFF798
:10196000EDFE40F6E4421821EBE7144B196811F044
:10197000807120D1144A5A6004231A462046FFF78A
:10198000DDFE40F6E4423021DBE70C4B196811F034
:10199000807110D10D4A5A6004230522EEE73029E8
:1019A000E3D004D81029BDD01829CED038BD48299D
:1019B000EBD07829A6D038BD003C02400038024068
:1019C0000C3C400406304208063043080C484106EF
:1019D0004FF0805200210A4B1A640A4A11601A68BB
:1019E00042F001021A601A689207FCD55A6C42F460
:1019F00080425A645A6E42F480425A665B6E704767
:101A0000003802400070004070B50068394D049CF9
:101A1000A84246D105F584356E6C46F480566E6456
:101A20006E6E26F480566E666D6E4FF44175012918
:101A3000056002BF016841F080010160012A02BF18
:101A4000026842F002020260012B02BF036843F009
:101A500001030360274B9842274B0CBF9B685B68D0
:101A6000B3FBF4F37F2B38DC3F2B38DC1F2B38DC47
:101A70000F2B38DC072B38DC032B38DC012BD4BFD1
:101A800000230123026842EAC30303609DF8143077
:101A9000012B02BF036843F400630360002343602B
:101AA00070BD164DA8420BD105F500352E6C46F4DD
:101AB00080462E642E6E26F480462E662D6EB4E788
:101AC0000F4DA842B1D105F5FE352E6C46F4004607
:101AD0002E642E6E26F40046EFE70723D2E7062396
:101AE000D0E70523CEE70423CCE70323CAE702238C
:101AF000C8E700BF003001400C170120003800404B
:101B0000003C004008B501F0F5F9FFF73DFB084B3C
:101B10009B68DB0703D5074B1B6803B19847FFF7AA
:101B200038FB01F0FFF9BDE8084001F04FBC00BFF1
:101B3000003001403417012008B501F0DBF9FFF750
:101B400023FB084B9B68DB0703D5074B1B6803B1DE
:101B50009847FFF71EFB01F0E5F9BDE8084001F0EA
:101B600035BC00BF003800403817012008B501F02F
:101B7000C1F9FFF709FB084B9B68DB0703D5074B4F
:101B80001B6803B19847FFF704FB01F0CBF9BDE8F0
:101B9000084001F01BBC00BF003C00403C17012086
:101BA0002DE9F04305469846002485B09DF8309015
:101BB00001AEB1FBF2F302FB1310092804F101049A
:101BC00094BF30303730C0B23719194607F8010CCE
:101BD000002BEED1274647450DD22B6849461B689E
:101BE0002846984718B10C2005B0BDE8F0830137AE
:101BF000F1E7002CF8D02B68013C1B68315D2846CA
:101C000098470028F5D0EEE72DE9F04F0B46054642
:101C100014464FF00A0B85B019785E1C31B928467E
:101C20002B685B6805B0BDE8F04F1847252905D043
:101C30002B6828461B68984748B3F0E75F784FF059
:101C40000008302F14BF20279E1C16F8011BA1F19D
:101C50003003DBB2092B03D92A2904D123780434B9
:101C60000BFB0838F1E72E2909D116F8011BA1F169
:101C70003003092BF9D92A2901D10434F5E7632966
:101C800039D017D841294ED003D82529D0D0334692
:101C9000C2E7532939D05829F9D14346102204F11B
:101CA0000409009721682846FFF77AFF0028B6D17B
:101CB0004C46ECE7692902D013D86429E7D104F136
:101CC00004092468002C07DA2B682D211B6828469C
:101CD00098470028A3D16442009743460A22214630
:101CE000E1E7732911D07529D1D104F104090097D6
:101CF00043460A22D6E72B6821781B682846271D11
:101D0000984700288BD13C46C1E72768013F17F868
:101D1000011F09B90434BAE72B6828461B689847A5
:101D20000028F4D07BE700272368D4F80880D4F893
:101D3000049003935FFA88FA4F4501DB0C34A6E761
:101D4000002F0DDC039B1022D95D30232846009321
:101D50000223FFF725FF00287FF461AF0137EBE78F
:101D6000B8F1000FEED02B6851461B682846984703
:101D70000028E7D053E700000FB413B504AB53F8C5
:101D8000044B0193202383F3118801F06DF8019A2D
:101D900021460648FFF738FF01F076F8002383F369
:101DA000118802B0BDE8104004B07047B41901209A
:101DB0000FB407B504AA52F8041B04480192FFF7B8
:101DC00023FF03B05DF804EB04B07047B4190120A1
:101DD0000FB407B504AA52F8041B04480192FFF798
:101DE00013FF03B05DF804EB04B07047B419012091
:101DF00070470EB403B503AA52F8041B00F5C8706F
:101E00000192FFF701FF02B05DF804EB03B07047E9
:101E1000A0F5CA70EDE70000F0B5364CA04245D100
:101E2000354D2C6B44F001042C6303244E00B44068
:101E3000E44305682540056002250768B5403D4339
:101E400005600125002A51D142688D4022EA05052E
:101E50004560C268072902EA0402C260C56803FA45
:101E600006F242EA0502C2608368C8BF083904EA84
:101E700003044FF002038460826803FA06F343EA26
:101E800002038360CCBF012300230F2200EB8300F9
:101E9000036A89008A4023EA020303629DF8143032
:101EA000026A03FA01F111430162F0BD134CA04232
:101EB00004D1114D2C6B44F00204B5E7104CA04244
:101EC00004D10D4D2C6B44F00404ADE70D4CA04241
:101ED00004D1094D2C6B44F00804A5E70A4CA0423C
:101EE000A3D1054D2C6B44F010049DE742688D4052
:101EF0001543ADE7000002400038024000040240F4
:101F000000080240000C02400010024090F88F319F
:101F100093B1002290F800321BB180F80022C0F883
:101F2000FC21D0F8FC31612BF4D8591C0344C0F8D3
:101F3000FC1183F89821EDE77047D0F81011D0F824
:101F40001C2100F588735B1A934228BF1346C0F822
:101F500020316BB1002280F8182142681268D160EC
:101F60005360C3681B6A1360136843F00103136076
:101F7000704743681A68116821F01F0111601168E9
:101F8000C907FCD4597A5A683D238B401360D0F8B6
:101F90002011D0F81C31D0F810215B1A0A4400F54A
:101FA00088718A4228BF00F11002C0F81C31C0F8C5
:101FB00010212BB9012380F8183103681B681847DA
:101FC000FFF7BBBFFFF7D5BFD0F81C31FF2B16D8EA
:101FD000D0F814315A1CC0F814211970D0F814210B
:101FE00000F588739A4224BF00F11003C0F8143141
:101FF000D0F81C310133C0F81C31002070470C2090
:102000007047FFF7E1BFA0F5C870FAE790F8183104
:102010000BB1FFF792BF7047FFF7F8BFA0F5C8708C
:10202000FAE70000C168084A4B6809689342074A0A
:1020300002D00748834204D19268B2FBF1F29A6061
:1020400070475268F9E700BF001001400C170120EB
:102050000014014013B50446C0685A4A43689342CD
:1020600020D002F5806293421CD002F54442934294
:102070000CBF0823072381890093002380681A4638
:10208000FFF7CAFEE368504A5B6893420CD14F4B9E
:102090005A6C42F010025A645A6E22F010025A66CC
:1020A0005B6E0EE00823E6E7494A934257D1474B5F
:1020B0001A6C42F400321A641A6E22F400321A6664
:1020C0001B6E2046FFF7AEFF0022E068092143683F
:1020D00080691A6123463F4A01F08EFF0268606002
:1020E000E0684368191D9160016A1160012284F85B
:1020F00018210C22DA60C0225A61324A93425ED023
:1021000002F5806293425AD002F5444293420CBFDA
:1021100008230723818A0093012300691A46FFF7E9
:102120007BFE0023E0681A460921C06901F064FFC4
:10213000E16803684A68A060101D98606320496ADE
:1021400004F59674DC6058601960196841F001016B
:102150001960D36843F40053D36002B010BD1E4A27
:10216000934208D1194B1A6C42F480221A641A6EF9
:1021700022F48022A3E7134A934208D1134B1A6C2E
:1021800042F400221A641A6E22F4002297E7134ADE
:10219000934208D10D4B1A6C42F480121A641A6EE5
:1021A00022F480128BE70E4A93428AD1074B5A6C75
:1021B00042F020025A645A6E22F020026FE7082390
:1021C000A8E700BF004C004000100140003802406A
:1021D00000440040C51F0008004800400050004077
:1021E0000014014010B52023044683F3118800F049
:1021F0003BFE012384F88F3100F046FE002383F379
:10220000118810BDFFF7EEBFA0F5CA70FAE7000015
:10221000144B984205D1144A136B43F00103136326
:102220007047124B984204D10F4A136B43F00203DC
:10223000F5E70F4B984204D10B4A136B43F00403AC
:10224000EDE70C4B984204D1074A136B43F00803A7
:10225000E5E7094B9842E3D1034A136B43F01003BF
:10226000DDE700BF000002400038024000040240E9
:1022700000080240000C024000100240044B1A7893
:1022800022B9012203481A70FEF704BF704700BF4D
:10229000301A01200CD00020F8B504461546FFF78F
:1022A000B7FF4B000268D8B203238340DB431A40D8
:1022B00022600122276802FA00F63E432660666823
:1022C0008A4026EA0202626062688D4015436560BA
:1022D000E2681A40E260E268E260A2681340A3602C
:1022E0000223A26883401343A360F8BD038EC16A32
:1022F00003F11002012393408B61704730B5C2692E
:10230000C46A1579018E012305B910318B4008325A
:10231000A361C261002030BD827981880068FFF727
:10232000BBBF00002DE9F04103257821714C7248B4
:10233000FFF7C0FA7048FFF745F900F05FFA00F0C8
:10234000DFFE04F1A4001221C4F89040C4F89440C8
:1023500000F0ACFE002104F1980000F0A7FE6748F1
:10236000FFF778FE664E674A67496848FFF704FD45
:10237000674F6148FFF78AFA002205213046FFF7D0
:102380008BFF39683C790846640097F80680E4B210
:10239000FFF73EFF05FA04F3DB430A6808FA04F48A
:1023A0001A400A60CA68B8881340CB60CB681C43E7
:1023B000CC600F24574B5A6C42F480425A645A6ED8
:1023C00022F480425A665B6E00F47F7303F180430F
:1023D00003F59C3300EA050299689200944021EAD3
:1023E0000401996039684C4CB14205D101219D68C6
:1023F00001FA02F22A430BE0A14202D19D680221B8
:10240000F6E7464EB14253D1996805FA02F20A4303
:102410009A600122424B82401968092841EA020170
:1024200019606FEA02015D6805EA01055D609D685B
:1024300001EA05019960D96841EA0201D9605A614F
:1024400054DC042854DC0630364D0F2100F0E8FC43
:1024500005F12C00FFF760FF2B8EE96A012503F1DF
:10246000100205FA02F205FA03F38A612A488B6129
:1024700000220821FFF710FF4FF480732A48A36160
:10248000FEF78EFD294C04F148062046FFF744FF75
:10249000A3882268083405FA03F3B4429361F4D1A7
:1024A000FEF7D0F8FEF7D8FD2148FEF7F3FDFEE772
:1024B000204DA94202D19D68042199E71E4DA942F1
:1024C00002D19D68052193E71C4DA94202D19D6868
:1024D00006218DE71A4DA94202D19D68072187E7A1
:1024E000184DA94295D19D68082181E72820ABE7C6
:1024F0001720A9E7401701200C17012024180120FC
:1025000000040240A0410008AE410008B8410008A4
:10251000A41A01200038024000080240000C0240CA
:10252000003C0140F0170120B01601205C1A012088
:102530000808002000100240001402400018024069
:10254000001C02400020024038B504460D4600F051
:1025500001FDD4F8AC30002B1EDD00F0FBFCD4F8FC
:10256000AC3004F19800013BC4F8AC30D4F894309E
:1025700003F10802C4F894202A681A606A685A6055
:10258000D4F8942004F190039A4228BFC4F89440F0
:1025900000F09CFD002038BD022038BD2DE9F0413F
:1025A0000446051D40F2E73642F210700027E0FBBA
:1025B000016700234FF47A7230463946FDF7BAFEC0
:1025C000064600F0C7FC236913B1284600F0B4FEAC
:1025D000234631462846BDE8F041014A00F060BE7E
:1025E000A111000838B5044600F0B4FC23693BB1E2
:1025F00000F0B0FC2369251D13B1284600F09CFEB5
:102600004FF0FF35E3691A78042AFDD8DFE802F0BD
:10261000030A13222E00236820469B68984701284E
:10262000F0D138BD59680833E3610029EAD020466B
:10263000FFF7B4FF38BD5A68A36903EBC203E36137
:1026400094F8293023B104F124011048FFF77CFFEE
:102650000121ECE794F8293023B104F124010B485F
:10266000FFF772FF0023A361E36138BD226A0132E4
:1026700004BF5A682262226A1AB908332562E361EC
:10268000C0E7A369013AE3612262BBE7401701207A
:10269000002000214C4B2DE9F047C3E90001C3F8AD
:1026A0009030C3F894304FF4E133484A4FF00608B5
:1026B000136003F18043A3F5324353600F230727D0
:1026C0000D2600244FF0010A9361414BDFF8289159
:1026D000136203F58033B03353623E4BC2F8089067
:1026E000DA60A2F80C80C2F810909782D66103F1EC
:1026F0001002C3F81021C3F81421374A374D1A606D
:1027000002F120013032C3F89011C3F8942183F80C
:1027100018A1C3F81C41C3F82041C3F82441C3F8F1
:10272000284183F88FA1C3F8FC4183F80042C3F825
:102730000442C3F808422C222146284601F074FCCA
:102740004FF0FF332B620823022204212B86244BF7
:1027500085F829402B60234BC5F82C909A80C3F84C
:10276000009083F806A0204A204B85F832409A60FA
:102770001F4B204A998005219981092199840A21BA
:1027800099850B2199860C211A609C719A609C7323
:102790001A61A3F814809C759A619F839C771A62D2
:1027A00083F826409A6283F82E401A6383F83640F5
:1027B0009A63998783F83E401A64A3F8446083F8CB
:1027C0004640BDE8F08700BF40170120341A0120C1
:1027D000500400082418012054410008F01701207B
:1027E00094410008A41A01207D2200081817012036
:1027F0005C1A0120000802400004024008B500F005
:102800002BFE00F07BF800F004F8BDE8084000F073
:1028100001B8704700F032B80022034B58631A61C8
:102820000222DA60704700BF000C00400022014B1A
:10283000DA607047000C0040014B5863704700BFDE
:10284000000C004010B500F055FB0B4B1A699207C5
:102850000CD500241C61202383F3118800F026FB93
:1028600000F094FC00F034FB84F3118800F05AFB74
:10287000BDE8104000F0AABD000C0040154B10B59B
:102880001A6C154C42F008021A641A6E214642F086
:1028900008021A66114A1B6E9368114843F0080338
:1028A0009360FEF717FF42F21073B0FBF3F04FF0A6
:1028B000FF330138A062E3620023A3616363E36036
:1028C000636001230221636132202360BDE8104070
:1028D00000F0A6BA00380240000C0040002004E0DE
:1028E0000C170120202383F3118800F0DFBA08B50C
:1028F00000F0EEFA002383F3118808BD00F048BE13
:102900000123037000234360C36183620362C362D7
:1029100043620363038143817047000010B504469E
:1029200000F018FB14B90A4800F02AFC238920465D
:1029300003F001032381638903F001036381002312
:1029400023616361A361BDE8104000F095BE00BF44
:10295000C1410008F8B504460D4617461E4600F072
:10296000F9FA0CB1032D02D90A4800F009FC012341
:102970006289AB4013430022638104EB8503DB686B
:1029800029469B6920469F601E605A60BDE8F8405A
:1029900000F09ABED6410008F8B504460D46174629
:1029A0001E4600F0D7FA0CB1032D02D90A4800F0F8
:1029B000E7FB01232289AB4013430022238104EB70
:1029C0008503DB6829465B6920469F601E605A606C
:1029D000BDE8F84000F004BFE741000870B50223ED
:1029E000002504460370A0F84C5080F84E5080F843
:1029F0004F5005814581C56005614561856180F85D
:102A0000345000F0D5FD63681B6823B12946204689
:102A1000BDE87040184770BD0278436880F85020C8
:102A200005221B6802700BB10421184770474368E8
:102A300090F850201B6802700BB1052118477047B1
:102A400090F8343070B5044613B1002380F8343068
:102A500004F14402204600F02EFE63689B6863BBCD
:102A600094F8445015F0600615D194F8453005F0FF
:102A70007F0545EA032540F202339D4200F00B81B9
:102A800059D8022D00F0D9803DD8002D00F0858066
:102A9000012D00F0CC800021204601F071F80021CA
:102AA000204601F063F863681B6813B106212046D5
:102AB0009847062384F8343070BD20469847002894
:102AC000CED094F84B2094F84A3043EA0223E26BCC
:102AD000934238BFE36394F94430E56B002B80F2F6
:102AE000FA80002D00F0EB80092384F83430FFF7E2
:102AF000F9FEE36BA26B00212046FFF74DFFBDE816
:102B00007040FFF7F4BEB5F5817F00F0B080B5F5F9
:102B1000407F49D0B5F5807FBDD194F84630012B78
:102B2000B9D1B4F84C3023F00203A4F84C30A663BA
:102B3000E6632664C5E740F201639D421ED8B5F501
:102B4000C06F3BD2B5F5A06FA5D1B4F84430B3F552
:102B5000A06F0ED194F84630204684F84E3000F035
:102B60007FFD63681B6813B101212046984703234A
:102B700023700023A363E3632364A2E7B5F5106F1A
:102B800032D040F602439D4251D0B5F5006F82D15C
:102B900004F14F03A363012324E004F14C03A36376
:102BA00002232564E3638CE794F84630012B7FF41D
:102BB00072AFB4F84C3043F00203B6E794F8492002
:102BC000616894F848304D6843EA022394F847104E
:102BD00094F846202046A84700283FF45CAF43689D
:102BE000A3630368E363A4E72378042B0FD1FFF703
:102BF00079FE2046FFF792FEFFF779FE0321636816
:102C000084F84F601B6821700BB12046984794F8F8
:102C10004630002BADD084F84F3004232370636816
:102C20001B68002BA5D0022120469847A1E7324B14
:102C3000A3630223E36300239EE794F84810204631
:102C400011F0800F01F00F010ED000F027FD0128D8
:102C500006D002287FF41FAF284BE063A36368E728
:102C6000274BE563A36364E700F00BFDEFE794F8FF
:102C70004630002B7FF40FAF94F8483013F00F016B
:102C80003FF477AF1A06204602D500F08DFF70E7BB
:102C900000F080FF6DE794F84630002B7FF4FBAE28
:102CA00094F8483013F00F013FF463AF1B06204641
:102CB00002D500F065FF5CE700F058FF59E71423E8
:102CC00084F83430FFF70EFE2B462A4600212046BA
:102CD000FFF740FE13E73DB1152384F83430FFF7CA
:102CE00001FEE36BA26BF1E70B2384F83430FFF7AE
:102CF000F9FD2B462A46FEE6FD410008F941000891
:102D0000FB41000838B590F834300446152B29D81B
:102D1000DFE803F03D28282828283D28280B2938FB
:102D200028282828282828283D3D90F84B1090F87E
:102D30004A20C36B42EA01229A4214D9C268128A1D
:102D4000B3FBF2F502FB15356DB9FFF7CBFD2B4652
:102D50002A4629462046FFF71FFEFFF7C8FD0A2333
:102D600084F8343038BD142384F83430FFF7BAFDCA
:102D7000002320461A461946FFF7ECFDBDE838400F
:102D8000FFF7B5BD036C03B198470023E8E70021C6
:102D900000F0F6FE0021204600F0E8FE63681B68A4
:102DA00013B10621204698470623D9E738B590F895
:102DB00034300446152B23D801229A4040F6416353
:102DC0001A421ED112F4801510D1930218D50B238C
:102DD00080F83430FFF786FD2B462A4629462046E8
:102DE000FFF7DAFDBDE83840FFF781BDC3689B6996
:102DF0005B682BB9036C03B19847002384F8343027
:102E000038BD002100F0BCFE0021204600F0AEFEDF
:102E100063681B6813B10621204698470623EDE737
:102E200000F16043090103F56143C9B283F800135F
:102E3000012300F01F024009800000F16040934030
:102E400000F56140C0F8803103607047044B9A6A16
:102E50000AB9DB6A13B1034800F092B9704700BFAA
:102E6000481B0120FF41000810B5054CA36A0BB9AF
:102E7000E36A13B1034800F083F90123E36210BD54
:102E8000481B01200E42000810B5064CA36A13B976
:102E9000E36A002B02DC044800F072F90023E362CD
:102EA00010BD00BF481B01201842000810B5064C99
:102EB000A36A002B01DDE36A13B1044800F060F956
:102EC0000123E36210BD00BF481B0120134200082C
:102ED00010B5064CA36A002B02DDE36A002B02DC6E
:102EE000034800F04DF90023E36210BD481B0120A8
:102EF0001D42000810B5202383F31188074CA36AF4
:102F0000002B01DBE36A13B1054800F039F9A36A2D
:102F10000133A362002383F3118810BD481B0120F5
:102F20000442000810B5202383F31188074CA36ADC
:102F3000002B01DDE36A13B1054800F021F9A36A13
:102F4000013BA362002383F3118810BD481B0120BD
:102F500009420008054B9A6A002A02DBDB6A002B53
:102F600002DC034800F00CB9704700BF481B012089
:102F700022420008044B9A6A12B9DB6A002B02DC79
:102F8000024800F0FDB87047481B012028420008A5
:102F90000022024B1B605B609A607047481B012057
:102FA00010B50446FFF7D6FF14B9094800F0E8F859
:102FB0000023A2682375074B1B6899689142FBD2D6
:102FC0005A6823606260204614605C6010BD00BFD8
:102FD0002E420008481B012010B50446FFF7BAFF37
:102FE00014B9094800F0CCF80023A2682375074BF8
:102FF0001B6899689142FBD85A682360626020463A
:1030000014605C6010BD00BF3A420008481B0120FC
:1030100070B506460D4C2569FFF7ACFF23682E7589
:103020001A6854602260012223611A75EFF3098344
:103030002A69243B9A4202D9054800F0A1F82946A2
:103040002069BDE87040FDF7EFB800BF481B0120C4
:103050004B420008044B1A681B6990689B689842B1
:1030600094BF002001207047481B012038B50D4C4B
:10307000236820691A685460226001221A7523614E
:10308000FFF7AAFF0546EFF309830269243B9A4242
:1030900002D9054800F074F829462069BDE8384097
:1030A000FDF7C2B8481B01204B42000838B50D4659
:1030B000044608B1002902DA034800F061F82460F0
:1030C0006460A56038BD00BF5A42000810B50446D0
:1030D000FFF740FF14B9094800F052F8A368013324
:1030E000002BA36009DC2068036823605C60002378
:1030F0008361BDE81040FFF753BF10BD6A4200086E
:1031000038B50025174CFFF743FF00F0BBF801224C
:10311000154904F13000A562E56200F092F8134B06
:103120002061036101230375114B124AD96821F410
:10313000E0610904090C0A430F49DA60CA6842F0E9
:103140008072CA600D490A6842F001020A601022CA
:10315000DA77202283F82220FFF778FE85F31188A2
:1031600062B638BD481B01207742000800040020E9
:1031700000ED00E00003FA05F0ED00E0001000E0D3
:1031800072B6014B5862FEE7481B01202DE9F84F4B
:103190004FF00008214CFFF7DDFEDFF88490FFF7C9
:1031A000D9FE656904F11407D9F82430266AAA68A3
:1031B0009E1B964220D34FF0200AAA68236AD5F8B6
:1031C0000CB0134423622B68B61ABB425F60636184
:1031D000C5F80C8001D1FFF729FBFFF779FE88F3D2
:1031E00011882869D8478AF31188FFF75FFE65695F
:1031F000AB689E42E1D2D7E76269BA420CD09168CF
:1032000023628E1B9660A86802282CBF1818981C91
:10321000BDE8F84FFFF710BBBDE8F88F481B012051
:10322000000C0040034B59685A68521A9042FBD870
:10323000704700BF001000E0202383F31188FFF7E0
:1032400013BE8260022202750022427570470000A0
:10325000024B1B6998610F20FFF7DABE481B012063
:1032600010B50446FFF7E8FF2046BDE81040FFF721
:10327000EFBF03682BB10022026099611846FFF787
:103280008FBE7047054B03F114025A619A614FF0EB
:10329000FF32DA6100221A62704700BF481B01202A
:1032A000F8B506460C4615461F46FFF753FE0EB10D
:1032B00005B114B91D48FFF763FF1D4BF560586A4F
:1032C0001C4B022C1A4652F8145F214638BF0221CB
:1032D000954237611F460AD118625E619E610844BB
:1032E00035607560B160BDE8F840FFF795BA1B6ABC
:1032F000AA68C41A0C1902D3A41A2D6804E09442D7
:1033000002D21819FFF798FAAB689C420CD86B6888
:10331000356073601E604FF0FF336E60B460A86864
:10332000001BA860FB61F8BDE41AE6E77C420008D8
:10333000000C0040481B012010B50446FFF70AFEB0
:1033400014B91A48FFF71CFF19490B4653F8142FFC
:10335000944222680CD061680A60226851600021A2
:103360009A42E16021D09368A1680B44936010BD3C
:1033700000209A424A615360E06003D1BDE81040EA
:10338000FFF754BA9368A06803449360094A086A37
:10339000526A121A934208D9BDE81040991A0129BD
:1033A00098BF931C1844FFF747BA10BD8742000826
:1033B000481B0120000C0040EFF30983203383F306
:1033C0000988002383F311887047000010B520237B
:1033D00083F311880D4B5B6813F4006312D0EFF395
:1033E00009844FF0807344F8043CA4F1200383F374
:1033F0000988FFF72FFE18B1054B44F8083C10BDB3
:10340000044BFAE783F3118810BD00BF00ED00E024
:103410004D0200085802000870477047FEE70000A0
:1034200070B500240B4B03F1800093E826000439AB
:10343000AA4206D3D9688A4208D310338342F4D310
:1034400070BD51F8046F42F8046BF1E742F8044B89
:10345000F1E700BF94420008164B4FF0FF301A69A5
:1034600000216FEAC2526FEAD2521A611A69C2F39E
:1034700008021A611A695A6958615A6959615A6988
:103480001A6A62F080521A621A6A02F080521A6254
:103490001A6A5A6A58625A6A59625A6A1A6C42F02F
:1034A00080521A641A6E42F080521A661B6E00F047
:1034B0001DBD00BF00380240002230B5836D446D51
:1034C00011464FF0FF309D6804EB421301329542E4
:1034D000C3F80019C3F81019C3F80809C3F8001B92
:1034E000C3F8101BC3F8080BEED24FF00113C4F859
:1034F0001C3830BD890141F02001016103699B0640
:10350000FCD41220FFF78EBE204B2DE9F04703EBD1
:103510008002D2F80CE05D6DDEF81420461CD2F873
:1035200000C005EB063605EB4018516861450BD32A
:103530000123D5F8342803FA00F022EA0000C5F888
:1035400034081846BDE8F087BEF81040ACEB010324
:10355000A34228BF2346D8F81849A4B2B3EB840F7E
:1035600010D81F469468A4F1040959F804AF042F39
:10357000C6F800A001D9043FF7E71C440B4494604F
:103580005360D2E70020BDE8F08700BF941B012004
:1035900010B5054C2046FFF7B3F94FF0A043636523
:1035A000024BA36510BD00BF941B012038430008E7
:1035B000F8B5446D054600212046FFF79BFF002328
:1035C0004FF001124FF000664FF0FF30A96DC4F8C4
:1035D00034388F68C4F81C2804EB431201339F422F
:1035E000C2F80069C2F8006BC2F80809C2F8080BFB
:1035F000F2D20B686A6DEB65636210231361166982
:1036000016F01006FBD11220FFF70CFED4F800389C
:1036100023F4FE63C4F80038A36943F4402343F065
:103620001003A3610923C4F81038C4F814380A4BF6
:10363000EB604FF0C043C4F8103B084BC4F8003BAC
:10364000C4F81069C4F80039EB6D03F1100243F4BB
:103650008013EA65A362F8BD14430008408000109F
:10366000426D90F84E10D2F8003823F4FE6343EA1E
:103670000113C2F800387047826D1268C265FFF707
:103680001BBF436D583149015B5813F4004004D00F
:1036900013F4001F14BF012002207047436D48310E
:1036A00049015B5813F4004004D013F4001F14BF09
:1036B00001200220704700EB8101CB68196A0B687A
:1036C00013604B685360704700EB810310B5DC68F2
:1036D000A2691368D36019B9402B84BF40231360DB
:1036E000638A1268406D1A44013AB2FBF3F2534305
:1036F000033323F0030343EAC243490143F0C043C9
:103700004218C2F8103B236803F00303012B0CD1CD
:10371000D0F8083813F4807FD2F8003B14BF43F090
:10372000805343F00053C2F8003B0844D0F8003BFC
:1037300043F00443C0F8003B10BD00002DE9F04108
:10374000264D04466E6D06EB4013D3F8087B380710
:10375000C3F8087B0AD5D6F81438190706D505EB47
:103760008403DB6821465B6828469847FA0733D50F
:10377000D6F81438DB072FD505EB8403D968ECB9EC
:103780008B69488A5E68B6FBF0F200FB1262AAB948
:103790001868DA68904211D2121A83E814002023C4
:1037A00083F31188FFF782FB21460C48FFF78CFF5B
:1037B000FFF78EFB84F31188BDE8F081012303FA43
:1037C00004F26B8923EA02036B81CB6823B12146A3
:1037D000BDE8F04101481847BDE8F081941B012085
:1037E00000EB810370B5DD684A016C69436D2668A2
:1037F000E6603EBB4FF400249818C0F810492868D2
:1038000000F0030001280DD1D3F808089C1810F42B
:10381000807FD4F8000914BF40F0805040F0005081
:10382000C4F800091A44D2F8000940F00440C2F874
:1038300000090122D3F8340802FA01F10143C3F868
:10384000341870BD19B9402E84BF402020602E8AE4
:1038500020688419013CB4FBF6F440F0005040EAC3
:10386000C4409C18C4F81009C9E700002DE9F041D4
:10387000234D04466E6D06EB4013D3F80879F90723
:10388000C3F808791ED5D6F81038DA071AD505EB33
:103890008003D9684B691868DA6890421FD24FF0EC
:1038A0000008121A1A60C3F80480202383F31188D9
:1038B000FFF7FCFA21462846FFF792FFFFF708FBC7
:1038C00088F311883B0618D50123D6F83428A34085
:1038D000134212D02046BDE8F041FFF715BE012388
:1038E00003FA04F22B8923EA02032B818B68002B55
:1038F000E8D0214628469847E4E7BDE8F08100BFBC
:10390000941B01202DE9F84FFFF7F4FA9648456D16
:1039100004466E69AB691E4016F4805F6E6107D085
:10392000FFF75CF8FFF7FEFABDE8F84FFFF74EBD72
:10393000002E12DAD5F8003E8B489B071EBFD5F843
:10394000003E23F00303C5F8003ED5F8043823F009
:103950000103C5F80438FFF76AF8370502D5824835
:10396000FFF75AF8B0040CD5D5F8083813F0060F55
:10397000EB6823F470530CBF43F4105343F4A0538B
:10398000EB60310704D56368DB680BB17648984774
:10399000F2025AD4B3020CD500274FF00109D4F833
:1039A0005480DFF8C4A1A36DF9B29B688B4280F00C
:1039B0008780F70619D5616D0A6AC2F30A1702F00B
:1039C0000F0302F4F012B2F5802F00F0A180B2F5DF
:1039D000402F0AD104EB8303DB6801F58051186A9C
:1039E00000231A469F4240F087803003D5F81848DC
:1039F00013D5E10302D50020FFF7A0FEA20302D5F4
:103A00000120FFF79BFE630302D50220FFF796FE1D
:103A1000270302D50320FFF791FE750382D5E00747
:103A200002D50020FFF722FFA10702D50120FFF7F2
:103A30001DFF620702D50220FFF718FF23077FF55D
:103A400071AF0320FFF712FF6CE700274FF0010969
:103A5000D4F85480DFF810A1A36D5FFA87FB9B6850
:103A60005B4597D308EB4B13D3F8002902F44022AF
:103A7000B2F5802F22D1D3F80029002A1EDAD3F81C
:103A8000002942F09042C3F80029D3F80029002A07
:103A9000FBDB5946606DFFF72DFD228909FA0BF318
:103AA00022EA0303238104EB8B03DB689B6813B1D9
:103AB0005946504698475846FFF726FD0137CBE751
:103AC00008EB4112D2F8003B03F44023B3F5802FFA
:103AD00010D1D2F8003B002B0CDA628909FA01F30D
:103AE00022EA0303638104EB8103DB68DB680BB12B
:103AF00050469847013756E79C0708BF0A68072BCE
:103B000098BF027003F101039CBF120A013069E7FC
:103B1000023304EB8302526801F580519069026818
:103B2000D0F808C04068A2EB000E00221046974271
:103B30000AD104EB830463689B699A683A449A60EB
:103B40005A6817445F6050E712F0030F08BF086817
:103B5000964588BF8CF8000002F1010284BF000A7C
:103B60000CF1010CE3E700BF941B0120436D03EB54
:103B70004111D1F8003B43F40013C1F8003B7047FA
:103B8000436D03EB4111D1F8003943F40013C1F840
:103B900000397047436D03EB4111D1F8003B23F42A
:103BA0000013C1F8003B7047436D03EB4111D1F89E
:103BB000003923F40013C1F80039704708B5FFF746
:103BC00099F9084B084A196801F03D01996053685A
:103BD0000BB190689847FFF7A5F9BDE80840FFF7DB
:103BE000F5BB00BF00600240C41A012008B5FFF712
:103BF00081F9094B1968890901F03D018A019A6030
:103C0000064AD3680BB110699847FFF78BF9BDE8F6
:103C10000840FFF7DBBB00BF00600240C41A012070
:103C200008B5FFF767F9094B1968090C01F03D0168
:103C30000A049A60064A53690BB190699847FFF7E6
:103C400071F9BDE80840FFF7C1BB00BF006002404A
:103C5000C41A012008B5FFF74DF9094B1968890D01
:103C600001F03D018A059A60064AD3690BB1106ADA
:103C70009847FFF757F9BDE80840FFF7A7BB00BF1B
:103C800000600240C41A012008B5FFF733F9084B61
:103C9000084A596801F03D01D960536A0BB1906A36
:103CA0009847FFF73FF9BDE80840FFF78FBB00BF1B
:103CB00000600240C41A012008B5FFF71BF9094B48
:103CC0005968890901F03D018A01DA60064AD36A20
:103CD0000BB1106B9847FFF725F9BDE80840FFF7D7
:103CE00075BB00BF00600240C41A012008B5FFF791
:103CF00001F9094B5968090C01F03D010A04DA6029
:103D0000064A536B0BB1906B9847FFF70BF9BDE870
:103D10000840FFF75BBB00BF00600240C41A0120EF
:103D200008B5FFF7E7F8094B5968890D01F03D0127
:103D30008A05DA60064AD36B0BB1106C9847FFF71F
:103D4000F1F8BDE80840FFF741BB00BF006002404A
:103D5000C41A012008B5FFF7CDF8084B084A1968C6
:103D600001F03D019960536C0BB1906C9847FFF7DF
:103D7000D9F8BDE80840FFF729BB00BF0064024046
:103D8000C41A012008B5FFF7B5F8094B196889096D
:103D900001F03D018A019A60064AD36C0BB1106DA7
:103DA0009847FFF7BFF8BDE80840FFF70FBB00BF1B
:103DB00000640240C41A012008B5FFF79BF8094BC4
:103DC0001968090C01F03D010A049A60064A536D16
:103DD0000BB1906D9847FFF7A5F8BDE80840FFF7D5
:103DE000F5BA00BF00640240C41A012008B5FFF70D
:103DF00081F8094B1968890D01F03D018A059A6027
:103E0000064AD36D0BB1106E9847FFF78BF8BDE8EB
:103E10000840FFF7DBBA00BF00640240C41A01206B
:103E200008B5FFF767F8084B084A596801F03D01EB
:103E3000D960536E0BB1906E9847FFF773F8BDE8E9
:103E40000840FFF7C3BA00BF00640240C41A012053
:103E500008B5FFF74FF8094B5968890901F03D0192
:103E60008A01DA60064AD36E0BB1106F9847FFF7EC
:103E700059F8BDE80840FFF7A9BA00BF0064024046
:103E8000C41A012008B5FFF735F8094B5968090C29
:103E900001F03D010A04DA60064A536F0BB1906FDE
:103EA0009847FFF73FF8BDE80840FFF78FBA00BF1B
:103EB00000640240C41A012008B5FFF71BF8094B43
:103EC0005968890D01F03D018A05DA60064AD36F11
:103ED00013B1D2F880009847FFF724F8BDE80840F6
:103EE000FFF774BA00640240C41A0120002330B501
:103EF00019460C250B4A0C4C136005FB03F00059C6
:103F0000016002EBC3000133102B4160F5D14FF08B
:103F1000FF33064A9360D360C2F80834C2F80C3409
:103F200030BD00BFC41A01205443000800600240A5
:103F30002DE9F84304460F4690469946FFF70AF8E4
:103F40000F2C09D801252849A5400A68154207D039
:103F500000263046BDE8F8832448FFF711F9F7E75B
:103F60000C26234801EBC40E2A4315F0FF0F06FB75
:103F70000406CEF80480CEF808900A6009D01D4BE4
:103F80001A6B42F400121A631A6D42F400121A6599
:103F90001B6D15F47F4F09D0164B1A6B42F480024B
:103FA0001A631A6D42F480021A651B6D0C23634379
:103FB000C3581A6822F01F021A601D6815F0010527
:103FC000FBD10C2202FB04043D22607A616882402E
:103FD0000A6021221D605A61B8F1000FB9D039463C
:103FE000E07AFEF71DFFB4E7C41A0120444300083D
:103FF0005443000800380240F8B51F4604460D46F9
:104000001646202383F31188FEF72EFF3B463246E7
:1040100029462046FFF78CFF0446FEF735FF0023B4
:1040200083F311882046F8BD03460244934200D131
:08403000704703F8011BF9E7DA
:04403800F8B500BF18
:04403C00F8B500BF14
:104040000000000000000000010203040607080948
:10405000434320527374204661696C0D0043432032
:1040600057204661696C0D00434320522F5720466C
:1040700061696C3B2072706C3D25750D00434320D7
:1040800052204661696C0D00434320696E697420BB
:104090006F6B0D000000000000000000990F000889
:1040A000576169742025750D005270742025750DB7
:1040B00000527074456E642025750D0046696E6966
:1040C00073680D000D486172644661756C740D0073
:1040D000556E68616E646C65642025530D0041481F
:1040E00042467265713D25754D487A3B20415042EC
:1040F00031467265713D25754D487A3B20415042ED
:1041000032467265713D25754D487A0D00566563DE
:10411000746F72353800566563746F72354300569C
:104120006563746F72363000566563746F7236342F
:1041300000566563746F72363800566563746F722B
:10414000394300566563746F72453000000000000B
:1041500000000000F11D00080D1F000803200008EA
:1041600019200008F31D00080522000870FEFFFF5B
:1041700000000000072000081D2000086CFEFFFF63
:104180000000000009220008111E000800000000C5
:1041900000000000E5250008ED220008FD220008CF
:1041A00032303139313033315F31373433004269A5
:1041B00067537068657265000D25532025530D0AFD
:1041C0000075736244697361626C65456E64706FFB
:1041D000696E7473490075736253746172745265C9
:1041E00063656976654900757362537461727454CE
:1041F00072616E736D697449000000010000005324
:104200005623330053562338005356233900535650
:104210002334005356233600535623350053562378
:104220003700535623313000535623313100636831
:1042300053636852656164794900636853636852E7
:104240006561647941686561644900737461636B99
:10425000206F766572666C6F7700636853656D4F8B
:10426000626A656374496E697400636853656D536F
:1042700069676E616C490069646C650063685654D7
:10428000446F536574490063685654446F526573B4
:104290006574490074420108F41B0120F41B0120DD
:1042A000F41B0120744201080000002000000020DF
:1042B000000000207442010800C0012000C001205D
:1042C00000C001207442010800000000000000004E
:1042D00000000000744201080000001000000010FF
:1042E00000000010744201080040024000400240FB
:1042F000004002407442010800000000000000007D
:1043000000000000744201080000000000000000EE
:104310000000000000000000412A0008052D0008F0
:10432000AD2D000840004000AC1A0120AC1A01205D
:1043300001000000BC1A01208000000040010000C4
:1043400003000000646D6153747265616D416C6CB3
:104350006F63490010600240086002400000000BDB
:1043600028600240086002400006010C40600240E4
:10437000086002400010020D5860024008600240D0
:104380000016030E706002400C6002400000040F33
:10439000886002400C60024000060510A0600240E8
:1043A0000C60024000100611B86002400C60024030
:1043B0000016072F1064024008640240000008380D
:1043C0002864024008640240000609394064024043
:1043D0000864024000100A3A58640240086402402F
:1043E00000160B3B706402400C64024000000C3C61
:1043F000886402400C64024000060D44A064024040
:104400000C64024000100E45B86402400C64024087
:0444100000160F463D
:0844140050BFFF7F0100000012
:10441C007506012075060120180000000000000040
:10442C000000000000000000000000000000000080
:10443C000000000000000000000000000000000070
:10444C000000000000000000000000000000000060
:10445C000000000000000000180000000000000038
:10446C000000000000000000000000000000000040
:10447C000000000000000000000000000000000030
:10448C000000000000000000000000000000000020
:10449C0000000000000000001800000000000000F8
:1044AC000000000000000000000000000000000000
:1044BC0000000000000000000000000000000000F0
:1044CC0000000000000000000000000000000000E0
:1044DC0000000000000000001800000000000000B8
:1044EC0000000000000000000000000000000000C0
:1044FC0000000000000000000000000000000000B0
:10450C00000000000000000000000000000000009F
:10451C000000000000000000180000000000000077
:10452C00000000000000000000000000000000007F
:10453C00000000000000000000000000000000006F
:10454C00000000000000000000000000000000005F
:10455C000000000000000000180000000000000037
:10456C00000000000000000000000000000000003F
:10457C00000000000000000000000000000000002F
:10458C00000000000000000000000000000000001F
:10459C0000000000000000001800000000000000F7
:1045AC0000000000000000000000000000000000FF
:1045BC0000000000000000000000000000000000EF
:1045CC0000000000000000000000000000000000DF
:1045DC0000000000000000001800000000000000B7
:1045EC0000000000000000000000000000000000BF
:1045FC0000000000000000000000000000000000AF
:10460C00000000000000000000000000000000009E
:10461C000000000000000000180000000000000076
:10462C00000000000000000000000000000000007E
:10463C00000000000000000000000000000000006E
:10464C00000000000000000000000000000000005E
:10465C000000000000000000180000000000000036
:10466C00000000000000000000000000000000003E
:10467C00000000000000000000000000000000002E
:10468C00000000000000000000000000000000001E
:10469C0000000000000000001800000000000000F6
:1046AC0000000000000000000000000000000000FE
:1046BC0000000000000000000000000000000000EE
:1046CC0000000000000000000000000000000000DE
:1046DC0000000000000000001800000000000000B6
:1046EC0000000000000000000000000000000000BE
:1046FC0000000000000000000000000000000000AE
:10470C00000000000000000000000000000000009D
:10471C000000000000000000180000000000000075
:10472C00000000000000000000000000000000007D
:10473C00000000000000000000000000000000006D
:10474C00000000000000000000000000000000005D
:10475C000000000000000000180000000000000035
:10476C00000000000000000000000000000000003D
:10477C00000000000000000000000000000000002D
:10478C00000000000000000000000000000000001D
:10479C0000000000000000001800000000000000F5
:1047AC0000000000000000000000000000000000FD
:1047BC0000000000000000000000000000000000ED
:1047CC0000000000000000000000000000000000DD
:1047DC0000000000000000001800000000000000B5
:1047EC0000000000000000000000000000000000BD
:1047FC0000000000000000000000000000000000AD
:10480C00000000000000000000000000000000009C
:10481C000000000000000000180000000000000074
:10482C00000000000000000000000000000000007C
:10483C00000000000000000000000000000000006C
:10484C00000000000000000000000000000000005C
:10485C000000000000000000180000000000000034
:10486C00000000000000000000000000000000003C
:10487C00000000000000000000000000000000002C
:10488C00000000000000000000000000000000001C
:10489C0000000000000000001800000000000000F4
:1048AC0000000000000000000000000000000000FC
:1048BC0000000000000000000000000000000000EC
:1048CC0000000000000000000000000000000000DC
:1048DC0000000000000000001800000000000000B4
:1048EC0000000000000000000000000000000000BC
:1048FC0000000000000000000000000000000000AC
:10490C00000000000000000000000000000000009B
:10491C000000000000000000180000000000000073
:10492C00000000000000000000000000000000007B
:10493C00000000000000000000000000000000006B
:10494C00000000000000000000000000000000005B
:10495C000000000000000000180000000000000033
:10496C00000000000000000000000000000000003B
:10497C00000000000000000000000000000000002B
:10498C00000000000000000000000000000000001B
:10499C0000000000000000001800000000000000F3
:1049AC0000000000000000000000000000000000FB
:1049BC0000000000000000000000000000000000EB
:1049CC0000000000000000000000000000000000DB
:1049DC0000000000000000001800000000000000B3
:1049EC0000000000000000000000000000000000BB
:1049FC0000000000000000000000000000000000AB
:104A0C00000000000000000000000000000000009A
:104A1C000000000000000000180000000000000072
:104A2C00000000000000000000000000000000007A
:104A3C00000000000000000000000000000000006A
:104A4C00000000000000000000000000000000005A
:104A5C000000000000000000180000000000000032
:104A6C00000000000000000000000000000000003A
:104A7C00000000000000000000000000000000002A
:104A8C00000000000000000000000000000000001A
:104A9C0000000000000000001800000000000000F2
:104AAC0000000000000000000000000000000000FA
:104ABC0000000000000000000000000000000000EA
:104ACC0000000000000000000000000000000000DA
:104ADC0000000000000000001800000000000000B2
:104AEC0000000000000000000000000000000000BA
:104AFC0000000000000000000000000000000000AA
:104B0C000000000000000000000000000000000099
:104B1C00000000000000000018010101010100006C
:104B2C00010101010100000101010101000001016D
:104B3C00010101000001010101010000010101015D
:104B4C00010000010101010100000101010101004E
:104B5C000001010101010000180101010101000027
:104B6C00010101010100000101010101000001012D
:104B7C00010101000001010101010000010101011D
:104B8C00010000010101010100000101010101000E
:104B9C0000010101010100001801010101010000E7
:104BAC0001010101010000010101010100000101ED
:104BBC0001010100000101010101000001010101DD
:104BCC0001000001010101010000010101010100CE
:104BDC0000010101010100001801010101010000A7
:104BEC0001010101010000010101010100000101AD
:104BFC00010101000001010101010000010101019D
:104C0C00010000010101010100000101010101008D
:104C1C000001010101010000180101010101000066
:104C2C00010101010100000101010101000001016C
:104C3C00010101000001010101010000010101015C
:104C4C00010000010101010100000101010101004D
:104C5C000001010101010000180101010101000026
:104C6C00010101010100000101010101000001012C
:104C7C00010101000001010101010000010101011C
:104C8C00010000010101010100000101010101000D
:104C9C0000010101010100001801010101010000E6
:104CAC0001010101010000010101010100000101EC
:104CBC0001010100000101010101000001010101DC
:104CCC0001000001010101010000010101010100CD
:104CDC0000010101010100001801010101010000A6
:104CEC0001010101010000010101010100000101AC
:104CFC00010101000001010101010000010101019C
:104D0C00010000010101010100000101010101008C
:104D1C000001010101010000180101010101000065
:104D2C00010101010100000101010101000001016B
:104D3C00010101000001010101010000010101015B
:104D4C00010000010101010100000101010101004C
:104D5C000001010101010000180101010101000025
:104D6C00010101010100000101010101000001012B
:104D7C00010101000001010101010000010101011B
:104D8C00010000010101010100000101010101000C
:104D9C0000010101010100001801010101010000E5
:104DAC0001010101010000010101010100000101EB
:104DBC0001010100000101010101000001010101DB
:104DCC0001000001010101010000010101010100CC
:104DDC0000010101010100001801010101010000A5
:104DEC0001010101010000010101010100000101AB
:104DFC00010101000001010101010000010101019B
:104E0C00010000010101010100000101010101008B
:104E1C000001010101010000180101010101000064
:104E2C00010101010100000101010101000001016A
:104E3C00010101000001010101010000010101015A
:104E4C00010000010101010100000101010101004B
:104E5C00000101010101000018020202020200001F
:104E6C00020202020200000202020202000002021E
:104E7C00020202000002020202020000020202020E
:104E8C000200000202020202000002020202020000
:104E9C0000020202020200001802020202020000DA
:104EAC0002020202020000020202020200000202DE
:104EBC0002020200000202020202000002020202CE
:104ECC0002000002020202020000020202020200C0
:104EDC00000202020202000018020202020200009A
:104EEC00020202020200000202020202000002029E
:104EFC00020202000002020202020000020202028E
:104F0C00020000020202020200000202020202007F
:104F1C000002020202020000180202020202000059
:104F2C00020202020200000202020202000002025D
:104F3C00020202000002020202020000020202024D
:104F4C00020000020202020200000202020202003F
:104F5C000002020202020000180202020202000019
:104F6C00020202020200000202020202000002021D
:104F7C00020202000002020202020000020202020D
:104F8C0002000002020202020000020202020200FF
:104F9C0000020202020200001802020202020000D9
:104FAC0002020202020000020202020200000202DD
:104FBC0002020200000202020202000002020202CD
:104FCC0002000002020202020000020202020200BF
:104FDC000002020202020000180202020202000099
:104FEC00020202020200000202020202000002029D
:104FFC00020202000002020202020000020202028D
:10500C00020000020202020200000202020202007E
:10501C000002020202020000180202020202000058
:10502C00020202020200000202020202000002025C
:10503C00020202000002020202020000020202024C
:10504C00020000020202020200000202020202003E
:10505C000002020202020000180303030303000013
:10506C000303030303000003030303030000030310
:10507C000303030000030303030300000303030300
:10508C0003000003030303030000030303030300F3
:10509C0000030303030300001803030303030000CE
:1050AC0003030303030000030303030300000303D0
:1050BC0003030300000303030303000003030303C0
:1050CC0003000003030303030000030303030300B3
:1050DC00000303030303000018030303030300008E
:1050EC000303030303000003030303030000030390
:1050FC000303030000030303030300000303030380
:10510C000300000303030303000003030303030072
:10511C00000303030303000018030303030300004D
:10512C00030303030300000303030303000003034F
:10513C00030303000003030303030000030303033F
:10514C000300000303030303000003030303030032
:10515C00000303030303000018030303030300000D
:10516C00030303030300000303030303000003030F
:10517C0003030300000303030303000003030303FF
:10518C0003000003030303030000030303030300F2
:10519C0000030303030300001803030303030000CD
:1051AC0003030303030000030303030300000303CF
:1051BC0003030300000303030303000003030303BF
:1051CC0003000003030303030000030303030300B2
:1051DC00000303030303000018030303030300008D
:1051EC00030303030300000303030303000003038F
:1051FC00030303000003030303030000030303037F
:10520C000300000303030303000003030303030071
:10521C000003030303030000180404040404000047
:10522C000404040404000004040404040000040442
:10523C000404040000040404040400000404040432
:10524C000400000404040404000004040404040026
:10525C000004040404040000180404040404000002
:10526C000404040404000004040404040000040402
:10527C0004040400000404040404000004040404F2
:10528C0004000004040404040000040404040400E6
:10529C0000040404040400001804040404040000C2
:1052AC0004040404040000040404040400000404C2
:1052BC0004040400000404040404000004040404B2
:1052CC0004000004040404040000040404040400A6
:1052DC000004040404040000180404040404000082
:1052EC000404040404000004040404040000040482
:1052FC000404040000040404040400000404040472
:10530C000400000404040404000004040404040065
:10531C000004040404040000180404040404000041
:10532C000404040404000004040404040000040441
:10533C000404040000040404040400000404040431
:10534C000400000404040404000004040404040025
:10535C0000040404040400001805050505050000FC
:10536C0005050505050000050505050500000505F5
:10537C0005050500000505050505000005050505E5
:10538C0005000005050505050000050505050500DA
:10539C0000050505050500001805050505050000B7
:1053AC0005050505050000050505050500000505B5
:1053BC0005050500000505050505000005050505A5
:1053CC00050000050505050500000505050505009A
:1053DC000005050505050000180505050505000077
:1053EC000505050505000005050505050000050575
:1053FC000505050000050505050500000505050565
:10540C000500000505050505000005050505050059
:10541C000005050505050000180505050505000036
:10542C000505050505000005050505050000050534
:10543C000505050000050505050500000505050524
:10544C000500000505050505000005050505050019
:10545C0000050505050500001806060606060000F1
:10546C0006060606060000060606060600000606E8
:10547C0006060600000606060606000006060606D8
:10548C0006000006060606060000060606060600CE
:10549C0000060606060600001806060606060000AC
:1054AC0006060606060000060606060600000606A8
:1054BC000606060000060606060600000606060698
:1054CC00060000060606060600000606060606008E
:1054DC00000606060606000018060606060600006C
:1054EC000606060606000006060606060000060668
:1054FC000606060000060606060600000606060658
:10550C00060000060606060600000606060606004D
:10551C00000606060606000018060606060600002B
:10552C000606060606000006060606060000060627
:10553C000606060000060606060600000606060617
:10554C00060000060606060600000606060606000D
:10555C0000060606060600001807070707070000E6
:10556C0007070707070000070707070700000707DB
:10557C0007070700000707070707000007070707CB
:10558C0007000007070707070000070707070700C2
:10559C0000070707070700001807070707070000A1
:1055AC00070707070700000707070707000007079B
:1055BC00070707000007070707070000070707078B
:1055CC000700000707070707000007070707070082
:1055DC000007070707070000180707070707000061
:1055EC00070707070700000707070707000007075B
:1055FC00070707000007070707070000070707074B
:10560C000700000707070707000007070707070041
:10561C000007070707070000180707070707000020
:10562C00070707070700000707070707000007071A
:10563C00070707000007070707070000070707070A
:10564C000700000707070707000007070707070001
:10565C0000070707070700001808080808080000DB
:10566C0008080808080000080808080800000808CE
:10567C0008080800000808080808000008080808BE
:10568C0008000008080808080000080808080800B6
:10569C000008080808080000180808080808000096
:1056AC00080808080800000808080808000008088E
:1056BC00080808000008080808080000080808087E
:1056CC000800000808080808000008080808080076
:1056DC000008080808080000180808080808000056
:1056EC00080808080800000808080808000008084E
:1056FC00080808000008080808080000080808083E
:10570C000800000808080808000008080808080035
:10571C000008080808080000180909090909000010
:10572C000909090909000009090909090000090901
:10573C0009090900000909090909000009090909F1
:10574C0009000009090909090000090909090900EA
:10575C0000090909090900001809090909090000CB
:10576C0009090909090000090909090900000909C1
:10577C0009090900000909090909000009090909B1
:10578C0009000009090909090000090909090900AA
:10579C00000909090909000018090909090900008B
:1057AC000909090909000009090909090000090981
:1057BC000909090000090909090900000909090971
:1057CC00090000090909090900000909090909006A
:1057DC000009090909090000180A0A0A0A0A000046
:1057EC000A0A0A0A0A00000A0A0A0A0A00000A0A35
:1057FC000A0A0A00000A0A0A0A0A00000A0A0A0A25
:10580C000A00000A0A0A0A0A00000A0A0A0A0A001E
:10581C00000A0A0A0A0A0000180A0A0A0A0A000000
:10582C000A0A0A0A0A00000A0A0A0A0A00000A0AF4
:10583C000A0A0A00000A0A0A0A0A00000A0A0A0AE4
:10584C000A00000A0A0A0A0A00000A0A0A0A0A00DE
:10585C00000A0A0A0A0A0000180A0A0A0A0A0000C0
:10586C000A0A0A0A0A00000A0A0A0A0A00000A0AB4
:10587C000A0A0A00000A0A0A0A0A00000A0A0A0AA4
:10588C000A00000A0A0A0A0A00000A0A0A0A0A009E
:10589C00000A0A0A0A0A0000180B0B0B0B0B00007B
:1058AC000B0B0B0B0B00000B0B0B0B0B00000B0B68
:1058BC000B0B0B00000B0B0B0B0B00000B0B0B0B58
:1058CC000B00000B0B0B0B0B00000B0B0B0B0B0053
:1058DC00000B0B0B0B0B0000180B0B0B0B0B000036
:1058EC000B0B0B0B0B00000B0B0B0B0B00000B0B28
:1058FC000B0B0B00000B0B0B0B0B00000B0B0B0B18
:10590C000B00000B0B0B0B0B00000B0B0B0B0B0012
:10591C00000B0B0B0B0B0000180B0B0B0B0B0000F5
:10592C000B0B0B0B0B00000B0B0B0B0B00000B0BE7
:10593C000B0B0B00000B0B0B0B0B00000B0B0B0BD7
:10594C000B00000B0B0B0B0B00000B0B0B0B0B00D2
:10595C00000B0B0B0B0B0000180C0C0C0C0C0000B0
:10596C000C0C0C0C0C00000C0C0C0C0C00000C0C9B
:10597C000C0C0C00000C0C0C0C0C00000C0C0C0C8B
:10598C000C00000C0C0C0C0C00000C0C0C0C0C0087
:10599C00000C0C0C0C0C0000180C0C0C0C0C00006B
:1059AC000C0C0C0C0C00000C0C0C0C0C00000C0C5B
:1059BC000C0C0C00000C0C0C0C0C00000C0C0C0C4B
:1059CC000C00000C0C0C0C0C00000C0C0C0C0C0047
:1059DC00000C0C0C0C0C0000180D0D0D0D0D000026
:1059EC000D0D0D0D0D00000D0D0D0D0D00000D0D0F
:1059FC000D0D0D00000D0D0D0D0D00000D0D0D0DFF
:105A0C000D00000D0D0D0D0D00000D0D0D0D0D00FB
:105A1C00000D0D0D0D0D0000180D0D0D0D0D0000E0
:105A2C000D0D0D0D0D00000D0D0D0D0D00000D0DCE
:105A3C000D0D0D00000D0D0D0D0D00000D0D0D0DBE
:105A4C000D00000D0D0D0D0D00000D0D0D0D0D00BB
:105A5C00000D0D0D0D0D0000180D0D0D0D0D0000A0
:105A6C000D0D0D0D0D00000D0D0D0D0D00000D0D8E
:105A7C000D0D0D00000D0D0D0D0D00000D0D0D0D7E
:105A8C000D00000D0D0D0D0D00000D0D0D0D0D007B
:105A9C00000D0D0D0D0D0000180E0E0E0E0E00005B
:105AAC000E0E0E0E0E00000E0E0E0E0E00000E0E42
:105ABC000E0E0E00000E0E0E0E0E00000E0E0E0E32
